:02000000912944
:0400060000000800EE
:10000A0005308400000800088312D000D010500880
:04001A00800008005A
:10001E0005308400000800088312D00050105008EC
:04002E008000080046
:100032000520831685100320032005142510831242
:1000420005182728251C26282728202803200320D6
:10005200032003200320032003200320831685149A
:060062000320032008004A
:1000680001308312AE000030AF008030AC00AD012B
:100078002C082D04031967280320032003200320DC
:100088000F2083160510032003202C082B05D00011
:1000980000302D05D1005008510403195528851446
:1000A80058280520831685100320032005142510E1
:1000B800831205186328251C622863285C28AD0C68
:1000C800AC0CAD133C28AE01AF01032003200F2078
:1000D8008316051003200320851403200320032022
:1000E800032005142510831205187E28251C7D2859
:1000F8007E2877288312AE01AF0103200320851CD8
:1001080086282E1403200320032003200320032025
:1001180003200320032003200320032003200320BF
:10012800032003200F208316051005208316851051
:060138002E08D0000800B3
:10013E0083168514032003200514032003200520B5
:10014E0083168510032003200F2083160510080048
:10015E008312AA019F202408AB0034202A08AB008A
:0C016E0034202908AB00342019200800C0
:0C017A00831223088A002208820008007B
:100186008030003A8312D00080305002031DCD2803
:100196002708153C031CD4282808083C031CD4282F
:0E01A600D528D9282708A0002808A1000800A5
:1001B4008312271CE128A730A900AF20E428A63029
:0601C400A900AF200800B5
:1001CA0083122708A6002808A400AE30A900AF2091
:1001DA00D530A900AF208030A900AF20A830A900EF
:1001EA00AF203F30A900AF20D330A900AF20A9012A
:1001FA00AF204030A900AF208D30A900AF202708DA
:10020A00013A031D0C291030A900AF200F29143020
:10021A00A900AF202030A900AF20A901AF20A1304A
:10022A00A900AF20C830A900AF20DA30A900AF205A
:10023A001230A900AF208130A900AF202708013A67
:10024A00031D2B299F30A900AF202E29CF30A900EA
:10025A00AF20D930A900AF202708013A031D392958
:10026A002230A900AF203C29F130A900AF20DB30B1
:10027A00A900AF204030A900AF20A430A900AF20C8
:10028A00A630A900AF202E30A900AF20AF30A900B8
:04029A00AF20080089
:10029E008316051485142510831205185A29251C5A
:0802AE0059295A2953290800BF
:1002B60021308312A900AF20A901AF207F30A90009
:1002C600AF202230A900AF20A901AF200730A90036
:1002D600AF209F202408AB0034204030AB003420F0
:1002E600A701A80104302802031D7B29003027023C
:1002F60003188329AB013420A70A0319A80A752914
:0403060019200800B2
:10030A00BD208A110A128000840AA20A0319A30ACC
:08031A00D003031D8529080032
:1003220001308312A0000130A10004308316850041
:1003320083128501073099008B014F21013083120E
:10034200A7003C30A800E5205B210130A700DA209D
:100352000130A7000130A800C3201A30DB005E3054
:10036200DC006E30DD00DD0BB429DC0BB429DB0BC5
:06037200B4290000BB29C4
:02400E00D431AB
:00000001FF
